{
  "_format": "hh-sol-artifact-1",
  "contractName": "RandomSwap",
  "sourceName": "contracts/RandomSwap.sol",
  "abi": [
    {
      "inputs": [],
      "stateMutability": "nonpayable",
      "type": "constructor"
    },
    {
      "inputs": [],
      "name": "DAI",
      "outputs": [
        {
          "internalType": "address",
          "name": "",
          "type": "address"
        }
      ],
      "stateMutability": "view",
      "type": "function"
    },
    {
      "inputs": [],
      "name": "USDC",
      "outputs": [
        {
          "internalType": "address",
          "name": "",
          "type": "address"
        }
      ],
      "stateMutability": "view",
      "type": "function"
    },
    {
      "inputs": [],
      "name": "WETH9",
      "outputs": [
        {
          "internalType": "address",
          "name": "",
          "type": "address"
        }
      ],
      "stateMutability": "view",
      "type": "function"
    },
    {
      "inputs": [],
      "name": "poolFee",
      "outputs": [
        {
          "internalType": "uint24",
          "name": "",
          "type": "uint24"
        }
      ],
      "stateMutability": "view",
      "type": "function"
    },
    {
      "inputs": [
        {
          "internalType": "uint256",
          "name": "amountIn",
          "type": "uint256"
        }
      ],
      "name": "swapExactInputSingle",
      "outputs": [
        {
          "internalType": "uint256",
          "name": "amountOut",
          "type": "uint256"
        }
      ],
      "stateMutability": "nonpayable",
      "type": "function"
    },
    {
      "inputs": [],
      "name": "swapRouter",
      "outputs": [
        {
          "internalType": "contract ISwapRouter",
          "name": "",
          "type": "address"
        }
      ],
      "stateMutability": "view",
      "type": "function"
    }
  ],
  "bytecode": "0x60a060405234801561001057600080fd5b5073e592427a0aece92de3edee1f18e0157c0586156473ffffffffffffffffffffffffffffffffffffffff1660808173ffffffffffffffffffffffffffffffffffffffff1660601b8152505060805160601c610a7561008360003980610187528061027552806103405250610a756000f3fe608060405234801561001057600080fd5b50600436106100625760003560e01c8063089fe6aa146100675780634aa4a4fc1461008557806373bd43ad146100a357806389a30271146100d3578063c31c9c07146100f1578063e0bab4c41461010f575b600080fd5b61006f61012d565b60405161007c9190610983565b60405180910390f35b61008d610133565b60405161009a9190610931565b60405180910390f35b6100bd60048036038101906100b891906107c5565b61014b565b6040516100ca919061099e565b60405180910390f35b6100db610326565b6040516100e89190610931565b60405180910390f35b6100f961033e565b604051610106919061094c565b60405180910390f35b610117610362565b6040516101249190610931565b60405180910390f35b610bb881565b73c02aaa39b223fe8d0a0e5c4f27ead9083c756cc281565b600061016d736b175474e89094c44da98b954eedeac495271d0f33308561037a565b6101ac736b175474e89094c44da98b954eedeac495271d0f7f00000000000000000000000000000000000000000000000000000000000000008461059a565b6000604051806101000160405280736b175474e89094c44da98b954eedeac495271d0f73ffffffffffffffffffffffffffffffffffffffff16815260200173c02aaa39b223fe8d0a0e5c4f27ead9083c756cc273ffffffffffffffffffffffffffffffffffffffff168152602001610bb862ffffff1681526020013373ffffffffffffffffffffffffffffffffffffffff16815260200142815260200184815260200160008152602001600073ffffffffffffffffffffffffffffffffffffffff1681525090507f000000000000000000000000000000000000000000000000000000000000000073ffffffffffffffffffffffffffffffffffffffff1663414bf389826040518263ffffffff1660e01b81526004016102cc9190610967565b602060405180830381600087803b1580156102e657600080fd5b505af11580156102fa573d6000803e3d6000fd5b505050506040513d601f19601f8201168201806040525081019061031e91906107ee565b915050919050565b73a0b86991c6218b36c1d19d4a2e9eb0ce3606eb4881565b7f000000000000000000000000000000000000000000000000000000000000000081565b736b175474e89094c44da98b954eedeac495271d0f81565b6000808573ffffffffffffffffffffffffffffffffffffffff166323b872dd60e01b868686604051602401808473ffffffffffffffffffffffffffffffffffffffff1681526020018373ffffffffffffffffffffffffffffffffffffffff1681526020018281526020019350505050604051602081830303815290604052907bffffffffffffffffffffffffffffffffffffffffffffffffffffffff19166020820180517bffffffffffffffffffffffffffffffffffffffffffffffffffffffff83818316178352505050506040518082805190602001908083835b602083106104795780518252602082019150602081019050602083039250610456565b6001836020036101000a0380198251168184511680821785525050505050509050019150506000604051808303816000865af19150503d80600081146104db576040519150601f19603f3d011682016040523d82523d6000602084013e6104e0565b606091505b5091509150818015610520575060008151148061051f575080806020019051602081101561050d57600080fd5b81019080805190602001909291905050505b5b610592576040517f08c379a00000000000000000000000000000000000000000000000000000000081526004018080602001828103825260038152602001807f535446000000000000000000000000000000000000000000000000000000000081525060200191505060405180910390fd5b505050505050565b6000808473ffffffffffffffffffffffffffffffffffffffff1663095ea7b360e01b8585604051602401808373ffffffffffffffffffffffffffffffffffffffff16815260200182815260200192505050604051602081830303815290604052907bffffffffffffffffffffffffffffffffffffffffffffffffffffffff19166020820180517bffffffffffffffffffffffffffffffffffffffffffffffffffffffff83818316178352505050506040518082805190602001908083835b6020831061067b5780518252602082019150602081019050602083039250610658565b6001836020036101000a0380198251168184511680821785525050505050509050019150506000604051808303816000865af19150503d80600081146106dd576040519150601f19603f3d011682016040523d82523d6000602084013e6106e2565b606091505b50915091508180156107225750600081511480610721575080806020019051602081101561070f57600080fd5b81019080805190602001909291905050505b5b610794576040517f08c379a00000000000000000000000000000000000000000000000000000000081526004018080602001828103825260028152602001807f534100000000000000000000000000000000000000000000000000000000000081525060200191505060405180910390fd5b5050505050565b6000813590506107aa81610a28565b92915050565b6000815190506107bf81610a28565b92915050565b6000602082840312156107d757600080fd5b60006107e58482850161079b565b91505092915050565b60006020828403121561080057600080fd5b600061080e848285016107b0565b91505092915050565b610820816109b9565b82525050565b61082f816109b9565b82525050565b61083e81610a04565b82525050565b6101008201600082015161085b6000850182610817565b50602082015161086e6020850182610817565b50604082015161088160408501826108f5565b5060608201516108946060850182610817565b5060808201516108a76080850182610913565b5060a08201516108ba60a0850182610913565b5060c08201516108cd60c0850182610913565b5060e08201516108e060e08501826108e6565b50505050565b6108ef816109cb565b82525050565b6108fe816109eb565b82525050565b61090d816109eb565b82525050565b61091c816109fa565b82525050565b61092b816109fa565b82525050565b60006020820190506109466000830184610826565b92915050565b60006020820190506109616000830184610835565b92915050565b60006101008201905061097d6000830184610844565b92915050565b60006020820190506109986000830184610904565b92915050565b60006020820190506109b36000830184610922565b92915050565b60006109c4826109cb565b9050919050565b600073ffffffffffffffffffffffffffffffffffffffff82169050919050565b600062ffffff82169050919050565b6000819050919050565b6000610a0f82610a16565b9050919050565b6000610a21826109cb565b9050919050565b610a31816109fa565b8114610a3c57600080fd5b5056fea264697066735822122065ae163108553382934df586f849fb81b21d79fe56baf95f13c56bd2ce27a52964736f6c63430007060033",
  "linkReferences": {},
  "deployedLinkReferences": {}
}