{
  "_format": "hh-sol-artifact-1",
  "contractName": "RandomSwap",
  "sourceName": "contracts/RandomSwap.sol",
  "abi": [
    {
      "inputs": [
        {
          "internalType": "address",
          "name": "tokenType",
          "type": "address"
        }
      ],
      "name": "convertExactEthTo",
      "outputs": [],
      "stateMutability": "payable",
      "type": "function"
    },
    {
      "inputs": [],
      "name": "swapRouter",
      "outputs": [
        {
          "internalType": "contract ISwapRouter",
          "name": "",
          "type": "address"
        }
      ],
      "stateMutability": "view",
      "type": "function"
    }
  ],
  "bytecode": "0x608060405234801561001057600080fd5b5061053a806100206000396000f3fe6080604052600436106100295760003560e01c806360baeebc1461002e578063c31c9c071461004a575b600080fd5b61004860048036038101906100439190610280565b610075565b005b34801561005657600080fd5b5061005f61023e565b60405161006c91906103ff565b60405180910390f35b600034116100b8576040517f08c379a00000000000000000000000000000000000000000000000000000000081526004016100af9061041a565b60405180910390fd5b6000600f42019050600073d0a1e359811322d97991e03f863a0c30c2cf029c905060008390506000610bb89050600033905060003490506000600190506000806040518061010001604052808973ffffffffffffffffffffffffffffffffffffffff1681526020018873ffffffffffffffffffffffffffffffffffffffff1681526020018762ffffff1681526020018673ffffffffffffffffffffffffffffffffffffffff1681526020018a81526020018581526020018481526020018373ffffffffffffffffffffffffffffffffffffffff16815250905073e592427a0aece92de3edee1f18e0157c0586156473ffffffffffffffffffffffffffffffffffffffff1663414bf38934836040518363ffffffff1660e01b81526004016101df919061043a565b6020604051808303818588803b1580156101f857600080fd5b505af115801561020c573d6000803e3d6000fd5b50505050506040513d601f19601f8201168201806040525081019061023191906102a9565b5050505050505050505050565b73e592427a0aece92de3edee1f18e0157c0586156481565b600081359050610265816104d6565b92915050565b60008151905061027a816104ed565b92915050565b60006020828403121561029257600080fd5b60006102a084828501610256565b91505092915050565b6000602082840312156102bb57600080fd5b60006102c98482850161026b565b91505092915050565b6102db81610467565b82525050565b6102ea816104b2565b82525050565b60006102fd601a83610456565b91507f4d7573742070617373206e6f6e20302045544820616d6f756e740000000000006000830152602082019050919050565b6101008201600082015161034760008501826102d2565b50602082015161035a60208501826102d2565b50604082015161036d60408501826103e1565b50606082015161038060608501826102d2565b50608082015161039360808501826103f0565b5060a08201516103a660a08501826103f0565b5060c08201516103b960c08501826103f0565b5060e08201516103cc60e08501826103d2565b50505050565b6103db81610479565b82525050565b6103ea81610499565b82525050565b6103f9816104a8565b82525050565b600060208201905061041460008301846102e1565b92915050565b60006020820190508181036000830152610433816102f0565b9050919050565b6000610100820190506104506000830184610330565b92915050565b600082825260208201905092915050565b600061047282610479565b9050919050565b600073ffffffffffffffffffffffffffffffffffffffff82169050919050565b600062ffffff82169050919050565b6000819050919050565b60006104bd826104c4565b9050919050565b60006104cf82610479565b9050919050565b6104df81610467565b81146104ea57600080fd5b50565b6104f6816104a8565b811461050157600080fd5b5056fea2646970667358221220f5ca7ad3ead9f4e17d7b35bbd3d242a7820519521d3c0aad3d90392ae43505ca64736f6c63430007060033",
  "linkReferences": {},
  "deployedLinkReferences": {}
}