{
  "_format": "hh-sol-artifact-1",
  "contractName": "RandomSwap",
  "sourceName": "contracts/RandomSwap.sol",
  "abi": [
    {
      "inputs": [],
      "stateMutability": "nonpayable",
      "type": "constructor"
    },
    {
      "inputs": [],
      "name": "DAI",
      "outputs": [
        {
          "internalType": "address",
          "name": "",
          "type": "address"
        }
      ],
      "stateMutability": "view",
      "type": "function"
    },
    {
      "inputs": [],
      "name": "WETH",
      "outputs": [
        {
          "internalType": "address",
          "name": "",
          "type": "address"
        }
      ],
      "stateMutability": "view",
      "type": "function"
    },
    {
      "inputs": [],
      "name": "poolFee",
      "outputs": [
        {
          "internalType": "uint24",
          "name": "",
          "type": "uint24"
        }
      ],
      "stateMutability": "view",
      "type": "function"
    },
    {
      "inputs": [
        {
          "internalType": "uint256",
          "name": "amountIn",
          "type": "uint256"
        }
      ],
      "name": "swapExactInputSingle",
      "outputs": [
        {
          "internalType": "uint256",
          "name": "amountOut",
          "type": "uint256"
        }
      ],
      "stateMutability": "nonpayable",
      "type": "function"
    },
    {
      "inputs": [],
      "name": "swapRouter",
      "outputs": [
        {
          "internalType": "contract ISwapRouter",
          "name": "",
          "type": "address"
        }
      ],
      "stateMutability": "view",
      "type": "function"
    }
  ],
  "bytecode": "0x60a060405234801561001057600080fd5b5073e592427a0aece92de3edee1f18e0157c0586156473ffffffffffffffffffffffffffffffffffffffff1660808173ffffffffffffffffffffffffffffffffffffffff1660601b8152505060805160601c610a3461008360003980610146528061023452806102ff5250610a346000f3fe608060405234801561001057600080fd5b50600436106100575760003560e01c8063089fe6aa1461005c57806373bd43ad1461007a578063ad5c4648146100aa578063c31c9c07146100c8578063e0bab4c4146100e6575b600080fd5b610064610104565b6040516100719190610942565b60405180910390f35b610094600480360381019061008f9190610784565b61010a565b6040516100a1919061095d565b60405180910390f35b6100b26102e5565b6040516100bf91906108f0565b60405180910390f35b6100d06102fd565b6040516100dd919061090b565b60405180910390f35b6100ee610321565b6040516100fb91906108f0565b60405180910390f35b610bb881565b600061012c73ad6d458402f60fd3bd25163575031acdce07538d333085610339565b61016b73ad6d458402f60fd3bd25163575031acdce07538d7f000000000000000000000000000000000000000000000000000000000000000084610559565b600060405180610100016040528073ad6d458402f60fd3bd25163575031acdce07538d73ffffffffffffffffffffffffffffffffffffffff16815260200173c778417e063141139fce010982780140aa0cd5ab73ffffffffffffffffffffffffffffffffffffffff168152602001610bb862ffffff1681526020013373ffffffffffffffffffffffffffffffffffffffff16815260200142815260200184815260200160008152602001600073ffffffffffffffffffffffffffffffffffffffff1681525090507f000000000000000000000000000000000000000000000000000000000000000073ffffffffffffffffffffffffffffffffffffffff1663414bf389826040518263ffffffff1660e01b815260040161028b9190610926565b602060405180830381600087803b1580156102a557600080fd5b505af11580156102b9573d6000803e3d6000fd5b505050506040513d601f19601f820116820180604052508101906102dd91906107ad565b915050919050565b73c778417e063141139fce010982780140aa0cd5ab81565b7f000000000000000000000000000000000000000000000000000000000000000081565b73ad6d458402f60fd3bd25163575031acdce07538d81565b6000808573ffffffffffffffffffffffffffffffffffffffff166323b872dd60e01b868686604051602401808473ffffffffffffffffffffffffffffffffffffffff1681526020018373ffffffffffffffffffffffffffffffffffffffff1681526020018281526020019350505050604051602081830303815290604052907bffffffffffffffffffffffffffffffffffffffffffffffffffffffff19166020820180517bffffffffffffffffffffffffffffffffffffffffffffffffffffffff83818316178352505050506040518082805190602001908083835b602083106104385780518252602082019150602081019050602083039250610415565b6001836020036101000a0380198251168184511680821785525050505050509050019150506000604051808303816000865af19150503d806000811461049a576040519150601f19603f3d011682016040523d82523d6000602084013e61049f565b606091505b50915091508180156104df57506000815114806104de57508080602001905160208110156104cc57600080fd5b81019080805190602001909291905050505b5b610551576040517f08c379a00000000000000000000000000000000000000000000000000000000081526004018080602001828103825260038152602001807f535446000000000000000000000000000000000000000000000000000000000081525060200191505060405180910390fd5b505050505050565b6000808473ffffffffffffffffffffffffffffffffffffffff1663095ea7b360e01b8585604051602401808373ffffffffffffffffffffffffffffffffffffffff16815260200182815260200192505050604051602081830303815290604052907bffffffffffffffffffffffffffffffffffffffffffffffffffffffff19166020820180517bffffffffffffffffffffffffffffffffffffffffffffffffffffffff83818316178352505050506040518082805190602001908083835b6020831061063a5780518252602082019150602081019050602083039250610617565b6001836020036101000a0380198251168184511680821785525050505050509050019150506000604051808303816000865af19150503d806000811461069c576040519150601f19603f3d011682016040523d82523d6000602084013e6106a1565b606091505b50915091508180156106e157506000815114806106e057508080602001905160208110156106ce57600080fd5b81019080805190602001909291905050505b5b610753576040517f08c379a00000000000000000000000000000000000000000000000000000000081526004018080602001828103825260028152602001807f534100000000000000000000000000000000000000000000000000000000000081525060200191505060405180910390fd5b5050505050565b600081359050610769816109e7565b92915050565b60008151905061077e816109e7565b92915050565b60006020828403121561079657600080fd5b60006107a48482850161075a565b91505092915050565b6000602082840312156107bf57600080fd5b60006107cd8482850161076f565b91505092915050565b6107df81610978565b82525050565b6107ee81610978565b82525050565b6107fd816109c3565b82525050565b6101008201600082015161081a60008501826107d6565b50602082015161082d60208501826107d6565b50604082015161084060408501826108b4565b50606082015161085360608501826107d6565b50608082015161086660808501826108d2565b5060a082015161087960a08501826108d2565b5060c082015161088c60c08501826108d2565b5060e082015161089f60e08501826108a5565b50505050565b6108ae8161098a565b82525050565b6108bd816109aa565b82525050565b6108cc816109aa565b82525050565b6108db816109b9565b82525050565b6108ea816109b9565b82525050565b600060208201905061090560008301846107e5565b92915050565b600060208201905061092060008301846107f4565b92915050565b60006101008201905061093c6000830184610803565b92915050565b600060208201905061095760008301846108c3565b92915050565b600060208201905061097260008301846108e1565b92915050565b60006109838261098a565b9050919050565b600073ffffffffffffffffffffffffffffffffffffffff82169050919050565b600062ffffff82169050919050565b6000819050919050565b60006109ce826109d5565b9050919050565b60006109e08261098a565b9050919050565b6109f0816109b9565b81146109fb57600080fd5b5056fea264697066735822122050dc899e6ab651826ac9421fb0391c3b1c7896dff1d7e9a862a428a09032cc3864736f6c63430007060033",
  "linkReferences": {},
  "deployedLinkReferences": {}
}